{
  "_format": "hh-sol-artifact-1",
  "contractName": "GymCoin",
  "sourceName": "contracts/GymCoin.sol",
  "abi": [
    {
      "inputs": [
        {
          "internalType": "uint256",
          "name": "_initialSupply",
          "type": "uint256"
        },
        {
          "internalType": "uint256",
          "name": "_sellRate",
          "type": "uint256"
        },
        {
          "internalType": "uint256",
          "name": "_buyRate",
          "type": "uint256"
        }
      ],
      "stateMutability": "nonpayable",
      "type": "constructor"
    },
    {
      "inputs": [
        {
          "internalType": "address",
          "name": "spender",
          "type": "address"
        },
        {
          "internalType": "uint256",
          "name": "allowance",
          "type": "uint256"
        },
        {
          "internalType": "uint256",
          "name": "needed",
          "type": "uint256"
        }
      ],
      "name": "ERC20InsufficientAllowance",
      "type": "error"
    },
    {
      "inputs": [
        {
          "internalType": "address",
          "name": "sender",
          "type": "address"
        },
        {
          "internalType": "uint256",
          "name": "balance",
          "type": "uint256"
        },
        {
          "internalType": "uint256",
          "name": "needed",
          "type": "uint256"
        }
      ],
      "name": "ERC20InsufficientBalance",
      "type": "error"
    },
    {
      "inputs": [
        {
          "internalType": "address",
          "name": "approver",
          "type": "address"
        }
      ],
      "name": "ERC20InvalidApprover",
      "type": "error"
    },
    {
      "inputs": [
        {
          "internalType": "address",
          "name": "receiver",
          "type": "address"
        }
      ],
      "name": "ERC20InvalidReceiver",
      "type": "error"
    },
    {
      "inputs": [
        {
          "internalType": "address",
          "name": "sender",
          "type": "address"
        }
      ],
      "name": "ERC20InvalidSender",
      "type": "error"
    },
    {
      "inputs": [
        {
          "internalType": "address",
          "name": "spender",
          "type": "address"
        }
      ],
      "name": "ERC20InvalidSpender",
      "type": "error"
    },
    {
      "inputs": [
        {
          "internalType": "address",
          "name": "owner",
          "type": "address"
        }
      ],
      "name": "OwnableInvalidOwner",
      "type": "error"
    },
    {
      "inputs": [
        {
          "internalType": "address",
          "name": "account",
          "type": "address"
        }
      ],
      "name": "OwnableUnauthorizedAccount",
      "type": "error"
    },
    {
      "anonymous": false,
      "inputs": [
        {
          "indexed": true,
          "internalType": "address",
          "name": "owner",
          "type": "address"
        },
        {
          "indexed": true,
          "internalType": "address",
          "name": "spender",
          "type": "address"
        },
        {
          "indexed": false,
          "internalType": "uint256",
          "name": "value",
          "type": "uint256"
        }
      ],
      "name": "Approval",
      "type": "event"
    },
    {
      "anonymous": false,
      "inputs": [
        {
          "indexed": true,
          "internalType": "address",
          "name": "previousOwner",
          "type": "address"
        },
        {
          "indexed": true,
          "internalType": "address",
          "name": "newOwner",
          "type": "address"
        }
      ],
      "name": "OwnershipTransferred",
      "type": "event"
    },
    {
      "anonymous": false,
      "inputs": [
        {
          "indexed": false,
          "internalType": "uint256",
          "name": "newSellRate",
          "type": "uint256"
        },
        {
          "indexed": false,
          "internalType": "uint256",
          "name": "newBuyRate",
          "type": "uint256"
        }
      ],
      "name": "RatesUpdated",
      "type": "event"
    },
    {
      "anonymous": false,
      "inputs": [
        {
          "indexed": true,
          "internalType": "address",
          "name": "buyer",
          "type": "address"
        },
        {
          "indexed": false,
          "internalType": "uint256",
          "name": "ethAmount",
          "type": "uint256"
        },
        {
          "indexed": false,
          "internalType": "uint256",
          "name": "gcAmount",
          "type": "uint256"
        }
      ],
      "name": "TokensPurchased",
      "type": "event"
    },
    {
      "anonymous": false,
      "inputs": [
        {
          "indexed": true,
          "internalType": "address",
          "name": "seller",
          "type": "address"
        },
        {
          "indexed": false,
          "internalType": "uint256",
          "name": "gcAmount",
          "type": "uint256"
        },
        {
          "indexed": false,
          "internalType": "uint256",
          "name": "ethAmount",
          "type": "uint256"
        }
      ],
      "name": "TokensSold",
      "type": "event"
    },
    {
      "anonymous": false,
      "inputs": [
        {
          "indexed": true,
          "internalType": "address",
          "name": "from",
          "type": "address"
        },
        {
          "indexed": true,
          "internalType": "address",
          "name": "to",
          "type": "address"
        },
        {
          "indexed": false,
          "internalType": "uint256",
          "name": "value",
          "type": "uint256"
        }
      ],
      "name": "Transfer",
      "type": "event"
    },
    {
      "inputs": [
        {
          "internalType": "address",
          "name": "owner",
          "type": "address"
        },
        {
          "internalType": "address",
          "name": "spender",
          "type": "address"
        }
      ],
      "name": "allowance",
      "outputs": [
        {
          "internalType": "uint256",
          "name": "",
          "type": "uint256"
        }
      ],
      "stateMutability": "view",
      "type": "function"
    },
    {
      "inputs": [
        {
          "internalType": "address",
          "name": "spender",
          "type": "address"
        },
        {
          "internalType": "uint256",
          "name": "value",
          "type": "uint256"
        }
      ],
      "name": "approve",
      "outputs": [
        {
          "internalType": "bool",
          "name": "",
          "type": "bool"
        }
      ],
      "stateMutability": "nonpayable",
      "type": "function"
    },
    {
      "inputs": [
        {
          "internalType": "address",
          "name": "account",
          "type": "address"
        }
      ],
      "name": "balanceOf",
      "outputs": [
        {
          "internalType": "uint256",
          "name": "",
          "type": "uint256"
        }
      ],
      "stateMutability": "view",
      "type": "function"
    },
    {
      "inputs": [
        {
          "internalType": "uint256",
          "name": "gcAmount",
          "type": "uint256"
        }
      ],
      "name": "buy",
      "outputs": [],
      "stateMutability": "payable",
      "type": "function"
    },
    {
      "inputs": [],
      "name": "buyRate",
      "outputs": [
        {
          "internalType": "uint256",
          "name": "",
          "type": "uint256"
        }
      ],
      "stateMutability": "view",
      "type": "function"
    },
    {
      "inputs": [],
      "name": "decimals",
      "outputs": [
        {
          "internalType": "uint8",
          "name": "",
          "type": "uint8"
        }
      ],
      "stateMutability": "view",
      "type": "function"
    },
    {
      "inputs": [],
      "name": "name",
      "outputs": [
        {
          "internalType": "string",
          "name": "",
          "type": "string"
        }
      ],
      "stateMutability": "view",
      "type": "function"
    },
    {
      "inputs": [],
      "name": "owner",
      "outputs": [
        {
          "internalType": "address",
          "name": "",
          "type": "address"
        }
      ],
      "stateMutability": "view",
      "type": "function"
    },
    {
      "inputs": [],
      "name": "renounceOwnership",
      "outputs": [],
      "stateMutability": "nonpayable",
      "type": "function"
    },
    {
      "inputs": [
        {
          "internalType": "uint256",
          "name": "gcAmount",
          "type": "uint256"
        }
      ],
      "name": "sell",
      "outputs": [],
      "stateMutability": "nonpayable",
      "type": "function"
    },
    {
      "inputs": [],
      "name": "sellRate",
      "outputs": [
        {
          "internalType": "uint256",
          "name": "",
          "type": "uint256"
        }
      ],
      "stateMutability": "view",
      "type": "function"
    },
    {
      "inputs": [
        {
          "internalType": "uint256",
          "name": "_sellRate",
          "type": "uint256"
        },
        {
          "internalType": "uint256",
          "name": "_buyRate",
          "type": "uint256"
        }
      ],
      "name": "setRates",
      "outputs": [],
      "stateMutability": "nonpayable",
      "type": "function"
    },
    {
      "inputs": [],
      "name": "symbol",
      "outputs": [
        {
          "internalType": "string",
          "name": "",
          "type": "string"
        }
      ],
      "stateMutability": "view",
      "type": "function"
    },
    {
      "inputs": [],
      "name": "totalSupply",
      "outputs": [
        {
          "internalType": "uint256",
          "name": "",
          "type": "uint256"
        }
      ],
      "stateMutability": "view",
      "type": "function"
    },
    {
      "inputs": [
        {
          "internalType": "address",
          "name": "to",
          "type": "address"
        },
        {
          "internalType": "uint256",
          "name": "value",
          "type": "uint256"
        }
      ],
      "name": "transfer",
      "outputs": [
        {
          "internalType": "bool",
          "name": "",
          "type": "bool"
        }
      ],
      "stateMutability": "nonpayable",
      "type": "function"
    },
    {
      "inputs": [
        {
          "internalType": "address",
          "name": "from",
          "type": "address"
        },
        {
          "internalType": "address",
          "name": "to",
          "type": "address"
        },
        {
          "internalType": "uint256",
          "name": "value",
          "type": "uint256"
        }
      ],
      "name": "transferFrom",
      "outputs": [
        {
          "internalType": "bool",
          "name": "",
          "type": "bool"
        }
      ],
      "stateMutability": "nonpayable",
      "type": "function"
    },
    {
      "inputs": [
        {
          "internalType": "address",
          "name": "newOwner",
          "type": "address"
        }
      ],
      "name": "transferOwnership",
      "outputs": [],
      "stateMutability": "nonpayable",
      "type": "function"
    },
    {
      "stateMutability": "payable",
      "type": "receive"
    }
  ],
  "bytecode": "0x60806040523480156200001157600080fd5b506040516200285138038062002851833981810160405281019062000037919062000570565b336040518060400160405280600881526020017f47796d20436f696e0000000000000000000000000000000000000000000000008152506040518060400160405280600281526020017f47430000000000000000000000000000000000000000000000000000000000008152508160039081620000b591906200083c565b508060049081620000c791906200083c565b505050600073ffffffffffffffffffffffffffffffffffffffff168173ffffffffffffffffffffffffffffffffffffffff16036200013f5760006040517f1e4fbdf700000000000000000000000000000000000000000000000000000000815260040162000136919062000968565b60405180910390fd5b6200015081620001a460201b60201c565b506200018d33620001666200026a60201b60201c565b600a62000174919062000b15565b8562000181919062000b66565b6200027360201b60201c565b816006819055508060078190555050505062000c57565b6000600560009054906101000a900473ffffffffffffffffffffffffffffffffffffffff16905081600560006101000a81548173ffffffffffffffffffffffffffffffffffffffff021916908373ffffffffffffffffffffffffffffffffffffffff1602179055508173ffffffffffffffffffffffffffffffffffffffff168173ffffffffffffffffffffffffffffffffffffffff167f8be0079c531659141344cd1fd0a4f28419497f9722a3daafe3b4186f6b6457e060405160405180910390a35050565b60006012905090565b600073ffffffffffffffffffffffffffffffffffffffff168273ffffffffffffffffffffffffffffffffffffffff1603620002e85760006040517fec442f05000000000000000000000000000000000000000000000000000000008152600401620002df919062000968565b60405180910390fd5b620002fc600083836200030060201b60201c565b5050565b600073ffffffffffffffffffffffffffffffffffffffff168373ffffffffffffffffffffffffffffffffffffffff16036200035657806002600082825462000349919062000bb1565b925050819055506200042c565b60008060008573ffffffffffffffffffffffffffffffffffffffff1673ffffffffffffffffffffffffffffffffffffffff16815260200190815260200160002054905081811015620003e5578381836040517fe450d38c000000000000000000000000000000000000000000000000000000008152600401620003dc9392919062000bfd565b60405180910390fd5b8181036000808673ffffffffffffffffffffffffffffffffffffffff1673ffffffffffffffffffffffffffffffffffffffff16815260200190815260200160002081905550505b600073ffffffffffffffffffffffffffffffffffffffff168273ffffffffffffffffffffffffffffffffffffffff1603620004775780600260008282540392505081905550620004c4565b806000808473ffffffffffffffffffffffffffffffffffffffff1673ffffffffffffffffffffffffffffffffffffffff168152602001908152602001600020600082825401925050819055505b8173ffffffffffffffffffffffffffffffffffffffff168373ffffffffffffffffffffffffffffffffffffffff167fddf252ad1be2c89b69c2b068fc378daa952ba7f163c4a11628f55a4df523b3ef8360405162000523919062000c3a565b60405180910390a3505050565b600080fd5b6000819050919050565b6200054a8162000535565b81146200055657600080fd5b50565b6000815190506200056a816200053f565b92915050565b6000806000606084860312156200058c576200058b62000530565b5b60006200059c8682870162000559565b9350506020620005af8682870162000559565b9250506040620005c28682870162000559565b9150509250925092565b600081519050919050565b7f4e487b7100000000000000000000000000000000000000000000000000000000600052604160045260246000fd5b7f4e487b7100000000000000000000000000000000000000000000000000000000600052602260045260246000fd5b600060028204905060018216806200064e57607f821691505b60208210810362000664576200066362000606565b5b50919050565b60008190508160005260206000209050919050565b60006020601f8301049050919050565b600082821b905092915050565b600060088302620006ce7fffffffffffffffffffffffffffffffffffffffffffffffffffffffffffffffff826200068f565b620006da86836200068f565b95508019841693508086168417925050509392505050565b6000819050919050565b60006200071d62000717620007118462000535565b620006f2565b62000535565b9050919050565b6000819050919050565b6200073983620006fc565b62000751620007488262000724565b8484546200069c565b825550505050565b600090565b6200076862000759565b620007758184846200072e565b505050565b5b818110156200079d57620007916000826200075e565b6001810190506200077b565b5050565b601f821115620007ec57620007b6816200066a565b620007c1846200067f565b81016020851015620007d1578190505b620007e9620007e0856200067f565b8301826200077a565b50505b505050565b600082821c905092915050565b60006200081160001984600802620007f1565b1980831691505092915050565b60006200082c8383620007fe565b9150826002028217905092915050565b6200084782620005cc565b67ffffffffffffffff811115620008635762000862620005d7565b5b6200086f825462000635565b6200087c828285620007a1565b600060209050601f831160018114620008b457600084156200089f578287015190505b620008ab85826200081e565b8655506200091b565b601f198416620008c4866200066a565b60005b82811015620008ee57848901518255600182019150602085019450602081019050620008c7565b868310156200090e57848901516200090a601f891682620007fe565b8355505b6001600288020188555050505b505050505050565b600073ffffffffffffffffffffffffffffffffffffffff82169050919050565b6000620009508262000923565b9050919050565b620009628162000943565b82525050565b60006020820190506200097f600083018462000957565b92915050565b7f4e487b7100000000000000000000000000000000000000000000000000000000600052601160045260246000fd5b60008160011c9050919050565b6000808291508390505b600185111562000a1357808604811115620009eb57620009ea62000985565b5b6001851615620009fb5780820291505b808102905062000a0b85620009b4565b9450620009cb565b94509492505050565b60008262000a2e576001905062000b01565b8162000a3e576000905062000b01565b816001811462000a57576002811462000a625762000a98565b600191505062000b01565b60ff84111562000a775762000a7662000985565b5b8360020a91508482111562000a915762000a9062000985565b5b5062000b01565b5060208310610133831016604e8410600b841016171562000ad25782820a90508381111562000acc5762000acb62000985565b5b62000b01565b62000ae18484846001620009c1565b9250905081840481111562000afb5762000afa62000985565b5b81810290505b9392505050565b600060ff82169050919050565b600062000b228262000535565b915062000b2f8362000b08565b925062000b5e7fffffffffffffffffffffffffffffffffffffffffffffffffffffffffffffffff848462000a1c565b905092915050565b600062000b738262000535565b915062000b808362000535565b925082820262000b908162000535565b9150828204841483151762000baa5762000ba962000985565b5b5092915050565b600062000bbe8262000535565b915062000bcb8362000535565b925082820190508082111562000be65762000be562000985565b5b92915050565b62000bf78162000535565b82525050565b600060608201905062000c14600083018662000957565b62000c23602083018562000bec565b62000c32604083018462000bec565b949350505050565b600060208201905062000c51600083018462000bec565b92915050565b611bea8062000c676000396000f3fe6080604052600436106101025760003560e01c80638da5cb5b11610095578063d96a094a11610064578063d96a094a14610344578063dd62ed3e14610360578063e4849b321461039d578063f2fde38b146103c6578063fc37987b146103ef57610109565b80638da5cb5b1461028857806395d89b41146102b3578063a9059cbb146102de578063ac6af2801461031b57610109565b8063313ce567116100d1578063313ce567146101de5780636217229b1461020957806370a0823114610234578063715018a61461027157610109565b806306fdde031461010e578063095ea7b31461013957806318160ddd1461017657806323b872dd146101a157610109565b3661010957005b600080fd5b34801561011a57600080fd5b5061012361041a565b6040516101309190611300565b60405180910390f35b34801561014557600080fd5b50610160600480360381019061015b91906113bb565b6104ac565b60405161016d9190611416565b60405180910390f35b34801561018257600080fd5b5061018b6104cf565b6040516101989190611440565b60405180910390f35b3480156101ad57600080fd5b506101c860048036038101906101c3919061145b565b6104d9565b6040516101d59190611416565b60405180910390f35b3480156101ea57600080fd5b506101f3610508565b60405161020091906114ca565b60405180910390f35b34801561021557600080fd5b5061021e610511565b60405161022b9190611440565b60405180910390f35b34801561024057600080fd5b5061025b600480360381019061025691906114e5565b610517565b6040516102689190611440565b60405180910390f35b34801561027d57600080fd5b5061028661055f565b005b34801561029457600080fd5b5061029d610573565b6040516102aa9190611521565b60405180910390f35b3480156102bf57600080fd5b506102c861059d565b6040516102d59190611300565b60405180910390f35b3480156102ea57600080fd5b50610305600480360381019061030091906113bb565b61062f565b6040516103129190611416565b60405180910390f35b34801561032757600080fd5b50610342600480360381019061033d919061153c565b610652565b005b61035e6004803603810190610359919061157c565b6106f4565b005b34801561036c57600080fd5b50610387600480360381019061038291906115a9565b610892565b6040516103949190611440565b60405180910390f35b3480156103a957600080fd5b506103c460048036038101906103bf919061157c565b610919565b005b3480156103d257600080fd5b506103ed60048036038101906103e891906114e5565b610af8565b005b3480156103fb57600080fd5b50610404610b7e565b6040516104119190611440565b60405180910390f35b60606003805461042990611618565b80601f016020809104026020016040519081016040528092919081815260200182805461045590611618565b80156104a25780601f10610477576101008083540402835291602001916104a2565b820191906000526020600020905b81548152906001019060200180831161048557829003601f168201915b5050505050905090565b6000806104b7610b84565b90506104c4818585610b8c565b600191505092915050565b6000600254905090565b6000806104e4610b84565b90506104f1858285610b9e565b6104fc858585610c33565b60019150509392505050565b60006012905090565b60065481565b60008060008373ffffffffffffffffffffffffffffffffffffffff1673ffffffffffffffffffffffffffffffffffffffff168152602001908152602001600020549050919050565b610567610d27565b6105716000610dae565b565b6000600560009054906101000a900473ffffffffffffffffffffffffffffffffffffffff16905090565b6060600480546105ac90611618565b80601f01602080910402602001604051908101604052809291908181526020018280546105d890611618565b80156106255780601f106105fa57610100808354040283529160200191610625565b820191906000526020600020905b81548152906001019060200180831161060857829003601f168201915b5050505050905090565b60008061063a610b84565b9050610647818585610c33565b600191505092915050565b61065a610d27565b60008211801561066a5750600081115b6106a9576040517f08c379a00000000000000000000000000000000000000000000000000000000081526004016106a090611695565b60405180910390fd5b81600681905550806007819055507f0cf6ce3db485f79e960e63b1550af071fe0c99c09834149273e0fa8b32018ff882826040516106e89291906116b5565b60405180910390a15050565b60008111610737576040517f08c379a000000000000000000000000000000000000000000000000000000000815260040161072e9061172a565b60405180910390fd5b6000600654670de0b6b3a7640000836107509190611779565b61075a91906117ea565b905080341461079e576040517f08c379a000000000000000000000000000000000000000000000000000000000815260040161079590611867565b60405180910390fd5b6107a6610508565b600a6107b291906119ba565b826107bd9190611779565b6107cd6107c8610573565b610517565b101561080e576040517f08c379a000000000000000000000000000000000000000000000000000000000815260040161080590611a51565b60405180910390fd5b61083e610819610573565b33610822610508565b600a61082e91906119ba565b856108399190611779565b610c33565b3373ffffffffffffffffffffffffffffffffffffffff167f8fafebcaf9d154343dad25669bfa277f4fbacd7ac6b0c4fed522580e040a0f3334846040516108869291906116b5565b60405180910390a25050565b6000600160008473ffffffffffffffffffffffffffffffffffffffff1673ffffffffffffffffffffffffffffffffffffffff16815260200190815260200160002060008373ffffffffffffffffffffffffffffffffffffffff1673ffffffffffffffffffffffffffffffffffffffff16815260200190815260200160002054905092915050565b6000811161095c576040517f08c379a00000000000000000000000000000000000000000000000000000000081526004016109539061172a565b60405180910390fd5b610964610508565b600a61097091906119ba565b8161097b9190611779565b61098433610517565b10156109c5576040517f08c379a00000000000000000000000000000000000000000000000000000000081526004016109bc90611abd565b60405180910390fd5b6000600754670de0b6b3a7640000836109de9190611779565b6109e891906117ea565b905080471015610a2d576040517f08c379a0000000000000000000000000000000000000000000000000000000008152600401610a2490611b29565b60405180910390fd5b610a5d33610a39610573565b610a41610508565b600a610a4d91906119ba565b85610a589190611779565b610c33565b3373ffffffffffffffffffffffffffffffffffffffff166108fc829081150290604051600060405180830381858888f19350505050158015610aa3573d6000803e3d6000fd5b503373ffffffffffffffffffffffffffffffffffffffff167f2dcf9433d75db0d8b1c172641f85e319ffe4ad22e108a95d1847ceb906e5195d8383604051610aec9291906116b5565b60405180910390a25050565b610b00610d27565b600073ffffffffffffffffffffffffffffffffffffffff168173ffffffffffffffffffffffffffffffffffffffff1603610b725760006040517f1e4fbdf7000000000000000000000000000000000000000000000000000000008152600401610b699190611521565b60405180910390fd5b610b7b81610dae565b50565b60075481565b600033905090565b610b998383836001610e74565b505050565b6000610baa8484610892565b90507fffffffffffffffffffffffffffffffffffffffffffffffffffffffffffffffff811015610c2d5781811015610c1d578281836040517ffb8f41b2000000000000000000000000000000000000000000000000000000008152600401610c1493929190611b49565b60405180910390fd5b610c2c84848484036000610e74565b5b50505050565b600073ffffffffffffffffffffffffffffffffffffffff168373ffffffffffffffffffffffffffffffffffffffff1603610ca55760006040517f96c6fd1e000000000000000000000000000000000000000000000000000000008152600401610c9c9190611521565b60405180910390fd5b600073ffffffffffffffffffffffffffffffffffffffff168273ffffffffffffffffffffffffffffffffffffffff1603610d175760006040517fec442f05000000000000000000000000000000000000000000000000000000008152600401610d0e9190611521565b60405180910390fd5b610d2283838361104b565b505050565b610d2f610b84565b73ffffffffffffffffffffffffffffffffffffffff16610d4d610573565b73ffffffffffffffffffffffffffffffffffffffff1614610dac57610d70610b84565b6040517f118cdaa7000000000000000000000000000000000000000000000000000000008152600401610da39190611521565b60405180910390fd5b565b6000600560009054906101000a900473ffffffffffffffffffffffffffffffffffffffff16905081600560006101000a81548173ffffffffffffffffffffffffffffffffffffffff021916908373ffffffffffffffffffffffffffffffffffffffff1602179055508173ffffffffffffffffffffffffffffffffffffffff168173ffffffffffffffffffffffffffffffffffffffff167f8be0079c531659141344cd1fd0a4f28419497f9722a3daafe3b4186f6b6457e060405160405180910390a35050565b600073ffffffffffffffffffffffffffffffffffffffff168473ffffffffffffffffffffffffffffffffffffffff1603610ee65760006040517fe602df05000000000000000000000000000000000000000000000000000000008152600401610edd9190611521565b60405180910390fd5b600073ffffffffffffffffffffffffffffffffffffffff168373ffffffffffffffffffffffffffffffffffffffff1603610f585760006040517f94280d62000000000000000000000000000000000000000000000000000000008152600401610f4f9190611521565b60405180910390fd5b81600160008673ffffffffffffffffffffffffffffffffffffffff1673ffffffffffffffffffffffffffffffffffffffff16815260200190815260200160002060008573ffffffffffffffffffffffffffffffffffffffff1673ffffffffffffffffffffffffffffffffffffffff168152602001908152602001600020819055508015611045578273ffffffffffffffffffffffffffffffffffffffff168473ffffffffffffffffffffffffffffffffffffffff167f8c5be1e5ebec7d5bd14f71427d1e84f3dd0314c0f7b2291e5b200ac8c7c3b9258460405161103c9190611440565b60405180910390a35b50505050565b600073ffffffffffffffffffffffffffffffffffffffff168373ffffffffffffffffffffffffffffffffffffffff160361109d5780600260008282546110919190611b80565b92505081905550611170565b60008060008573ffffffffffffffffffffffffffffffffffffffff1673ffffffffffffffffffffffffffffffffffffffff16815260200190815260200160002054905081811015611129578381836040517fe450d38c00000000000000000000000000000000000000000000000000000000815260040161112093929190611b49565b60405180910390fd5b8181036000808673ffffffffffffffffffffffffffffffffffffffff1673ffffffffffffffffffffffffffffffffffffffff16815260200190815260200160002081905550505b600073ffffffffffffffffffffffffffffffffffffffff168273ffffffffffffffffffffffffffffffffffffffff16036111b95780600260008282540392505081905550611206565b806000808473ffffffffffffffffffffffffffffffffffffffff1673ffffffffffffffffffffffffffffffffffffffff168152602001908152602001600020600082825401925050819055505b8173ffffffffffffffffffffffffffffffffffffffff168373ffffffffffffffffffffffffffffffffffffffff167fddf252ad1be2c89b69c2b068fc378daa952ba7f163c4a11628f55a4df523b3ef836040516112639190611440565b60405180910390a3505050565b600081519050919050565b600082825260208201905092915050565b60005b838110156112aa57808201518184015260208101905061128f565b60008484015250505050565b6000601f19601f8301169050919050565b60006112d282611270565b6112dc818561127b565b93506112ec81856020860161128c565b6112f5816112b6565b840191505092915050565b6000602082019050818103600083015261131a81846112c7565b905092915050565b600080fd5b600073ffffffffffffffffffffffffffffffffffffffff82169050919050565b600061135282611327565b9050919050565b61136281611347565b811461136d57600080fd5b50565b60008135905061137f81611359565b92915050565b6000819050919050565b61139881611385565b81146113a357600080fd5b50565b6000813590506113b58161138f565b92915050565b600080604083850312156113d2576113d1611322565b5b60006113e085828601611370565b92505060206113f1858286016113a6565b9150509250929050565b60008115159050919050565b611410816113fb565b82525050565b600060208201905061142b6000830184611407565b92915050565b61143a81611385565b82525050565b60006020820190506114556000830184611431565b92915050565b60008060006060848603121561147457611473611322565b5b600061148286828701611370565b935050602061149386828701611370565b92505060406114a4868287016113a6565b9150509250925092565b600060ff82169050919050565b6114c4816114ae565b82525050565b60006020820190506114df60008301846114bb565b92915050565b6000602082840312156114fb576114fa611322565b5b600061150984828501611370565b91505092915050565b61151b81611347565b82525050565b60006020820190506115366000830184611512565b92915050565b6000806040838503121561155357611552611322565b5b6000611561858286016113a6565b9250506020611572858286016113a6565b9150509250929050565b60006020828403121561159257611591611322565b5b60006115a0848285016113a6565b91505092915050565b600080604083850312156115c0576115bf611322565b5b60006115ce85828601611370565b92505060206115df85828601611370565b9150509250929050565b7f4e487b7100000000000000000000000000000000000000000000000000000000600052602260045260246000fd5b6000600282049050600182168061163057607f821691505b602082108103611643576116426115e9565b5b50919050565b7f5261746573206d757374206265203e2030000000000000000000000000000000600082015250565b600061167f60118361127b565b915061168a82611649565b602082019050919050565b600060208201905081810360008301526116ae81611672565b9050919050565b60006040820190506116ca6000830185611431565b6116d76020830184611431565b9392505050565b7f416d6f756e74206d757374206265203e20300000000000000000000000000000600082015250565b600061171460128361127b565b915061171f826116de565b602082019050919050565b6000602082019050818103600083015261174381611707565b9050919050565b7f4e487b7100000000000000000000000000000000000000000000000000000000600052601160045260246000fd5b600061178482611385565b915061178f83611385565b925082820261179d81611385565b915082820484148315176117b4576117b361174a565b5b5092915050565b7f4e487b7100000000000000000000000000000000000000000000000000000000600052601260045260246000fd5b60006117f582611385565b915061180083611385565b9250826118105761180f6117bb565b5b828204905092915050565b7f496e636f72726563742045544820616d6f756e74000000000000000000000000600082015250565b600061185160148361127b565b915061185c8261181b565b602082019050919050565b6000602082019050818103600083015261188081611844565b9050919050565b60008160011c9050919050565b6000808291508390505b60018511156118de578086048111156118ba576118b961174a565b5b60018516156118c95780820291505b80810290506118d785611887565b945061189e565b94509492505050565b6000826118f757600190506119b3565b8161190557600090506119b3565b816001811461191b576002811461192557611954565b60019150506119b3565b60ff8411156119375761193661174a565b5b8360020a91508482111561194e5761194d61174a565b5b506119b3565b5060208310610133831016604e8410600b84101617156119895782820a9050838111156119845761198361174a565b5b6119b3565b6119968484846001611894565b925090508184048111156119ad576119ac61174a565b5b81810290505b9392505050565b60006119c582611385565b91506119d0836114ae565b92506119fd7fffffffffffffffffffffffffffffffffffffffffffffffffffffffffffffffff84846118e7565b905092915050565b7f4f776e657220686173206e6f7420656e6f756768204743000000000000000000600082015250565b6000611a3b60178361127b565b9150611a4682611a05565b602082019050919050565b60006020820190508181036000830152611a6a81611a2e565b9050919050565b7f4e6f7420656e6f75676820474300000000000000000000000000000000000000600082015250565b6000611aa7600d8361127b565b9150611ab282611a71565b602082019050919050565b60006020820190508181036000830152611ad681611a9a565b9050919050565b7f436f6e747261637420686173206e6f7420656e6f756768204554480000000000600082015250565b6000611b13601b8361127b565b9150611b1e82611add565b602082019050919050565b60006020820190508181036000830152611b4281611b06565b9050919050565b6000606082019050611b5e6000830186611512565b611b6b6020830185611431565b611b786040830184611431565b949350505050565b6000611b8b82611385565b9150611b9683611385565b9250828201905080821115611bae57611bad61174a565b5b9291505056fea26469706673582212202aa0817958fd3fc1c81cbf67c87ef5266d5cda0dc9ad4c048f9c940825b05a9d64736f6c63430008140033",
  "linkReferences": {},
  "deployedLinkReferences": {}
}