{
  "_format": "hh-sol-artifact-1",
  "contractName": "UserProfile",
  "sourceName": "contracts/UserProfile.sol",
  "abi": [
    {
      "anonymous": false,
      "inputs": [
        {
          "indexed": true,
          "internalType": "address",
          "name": "account",
          "type": "address"
        },
        {
          "indexed": false,
          "internalType": "string",
          "name": "username",
          "type": "string"
        }
      ],
      "name": "UserRegistered",
      "type": "event"
    },
    {
      "inputs": [
        {
          "internalType": "address",
          "name": "_account",
          "type": "address"
        }
      ],
      "name": "getUser",
      "outputs": [
        {
          "internalType": "string",
          "name": "",
          "type": "string"
        },
        {
          "internalType": "string",
          "name": "",
          "type": "string"
        },
        {
          "internalType": "address",
          "name": "",
          "type": "address"
        }
      ],
      "stateMutability": "view",
      "type": "function"
    },
    {
      "inputs": [
        {
          "internalType": "address",
          "name": "_account",
          "type": "address"
        }
      ],
      "name": "isRegistered",
      "outputs": [
        {
          "internalType": "bool",
          "name": "",
          "type": "bool"
        }
      ],
      "stateMutability": "view",
      "type": "function"
    },
    {
      "inputs": [
        {
          "internalType": "string",
          "name": "_username",
          "type": "string"
        },
        {
          "internalType": "string",
          "name": "_email",
          "type": "string"
        }
      ],
      "name": "registerUser",
      "outputs": [],
      "stateMutability": "nonpayable",
      "type": "function"
    }
  ],
  "bytecode": "0x608060405234801561001057600080fd5b50610e7b806100206000396000f3fe608060405234801561001057600080fd5b50600436106100415760003560e01c80631d2e4afd146100465780636f77926b14610062578063c3c5a54714610094575b600080fd5b610060600480360381019061005b919061077f565b6100c4565b005b61007c60048036038101906100779190610855565b61033b565b60405161008b93929190610910565b60405180910390f35b6100ae60048036038101906100a99190610855565b6105cd565b6040516100bb9190610970565b60405180910390f35b6000803373ffffffffffffffffffffffffffffffffffffffff1673ffffffffffffffffffffffffffffffffffffffff16815260200190815260200160002060020160149054906101000a900460ff1615610153576040517f08c379a000000000000000000000000000000000000000000000000000000000815260040161014a906109d7565b60405180910390fd5b6000825111610197576040517f08c379a000000000000000000000000000000000000000000000000000000000815260040161018e90610a43565b60405180910390fd5b60008151116101db576040517f08c379a00000000000000000000000000000000000000000000000000000000081526004016101d290610aaf565b60405180910390fd5b60405180608001604052808381526020018281526020013373ffffffffffffffffffffffffffffffffffffffff168152602001600115158152506000803373ffffffffffffffffffffffffffffffffffffffff1673ffffffffffffffffffffffffffffffffffffffff16815260200190815260200160002060008201518160000190816102689190610ce5565b50602082015181600101908161027e9190610ce5565b5060408201518160020160006101000a81548173ffffffffffffffffffffffffffffffffffffffff021916908373ffffffffffffffffffffffffffffffffffffffff16021790555060608201518160020160146101000a81548160ff0219169083151502179055509050503373ffffffffffffffffffffffffffffffffffffffff167f48cac28ad4dc618e15f4c2dd5e97751182f166de97b25618318b2112aa951a2f8360405161032f9190610db7565b60405180910390a25050565b60608060008060008573ffffffffffffffffffffffffffffffffffffffff1673ffffffffffffffffffffffffffffffffffffffff16815260200190815260200160002060020160149054906101000a900460ff166103ce576040517f08c379a00000000000000000000000000000000000000000000000000000000081526004016103c590610e25565b60405180910390fd5b60008060008673ffffffffffffffffffffffffffffffffffffffff1673ffffffffffffffffffffffffffffffffffffffff16815260200190815260200160002060405180608001604052908160008201805461042990610afe565b80601f016020809104026020016040519081016040528092919081815260200182805461045590610afe565b80156104a25780601f10610477576101008083540402835291602001916104a2565b820191906000526020600020905b81548152906001019060200180831161048557829003601f168201915b505050505081526020016001820180546104bb90610afe565b80601f01602080910402602001604051908101604052809291908181526020018280546104e790610afe565b80156105345780601f1061050957610100808354040283529160200191610534565b820191906000526020600020905b81548152906001019060200180831161051757829003601f168201915b505050505081526020016002820160009054906101000a900473ffffffffffffffffffffffffffffffffffffffff1673ffffffffffffffffffffffffffffffffffffffff1673ffffffffffffffffffffffffffffffffffffffff1681526020016002820160149054906101000a900460ff1615151515815250509050806000015181602001518260400151935093509350509193909250565b60008060008373ffffffffffffffffffffffffffffffffffffffff1673ffffffffffffffffffffffffffffffffffffffff16815260200190815260200160002060020160149054906101000a900460ff169050919050565b6000604051905090565b600080fd5b600080fd5b600080fd5b600080fd5b6000601f19601f8301169050919050565b7f4e487b7100000000000000000000000000000000000000000000000000000000600052604160045260246000fd5b61068c82610643565b810181811067ffffffffffffffff821117156106ab576106aa610654565b5b80604052505050565b60006106be610625565b90506106ca8282610683565b919050565b600067ffffffffffffffff8211156106ea576106e9610654565b5b6106f382610643565b9050602081019050919050565b82818337600083830152505050565b600061072261071d846106cf565b6106b4565b90508281526020810184848401111561073e5761073d61063e565b5b610749848285610700565b509392505050565b600082601f83011261076657610765610639565b5b813561077684826020860161070f565b91505092915050565b600080604083850312156107965761079561062f565b5b600083013567ffffffffffffffff8111156107b4576107b3610634565b5b6107c085828601610751565b925050602083013567ffffffffffffffff8111156107e1576107e0610634565b5b6107ed85828601610751565b9150509250929050565b600073ffffffffffffffffffffffffffffffffffffffff82169050919050565b6000610822826107f7565b9050919050565b61083281610817565b811461083d57600080fd5b50565b60008135905061084f81610829565b92915050565b60006020828403121561086b5761086a61062f565b5b600061087984828501610840565b91505092915050565b600081519050919050565b600082825260208201905092915050565b60005b838110156108bc5780820151818401526020810190506108a1565b60008484015250505050565b60006108d382610882565b6108dd818561088d565b93506108ed81856020860161089e565b6108f681610643565b840191505092915050565b61090a81610817565b82525050565b6000606082019050818103600083015261092a81866108c8565b9050818103602083015261093e81856108c8565b905061094d6040830184610901565b949350505050565b60008115159050919050565b61096a81610955565b82525050565b60006020820190506109856000830184610961565b92915050565b7f5573657220616c72656164792072656769737465726564000000000000000000600082015250565b60006109c160178361088d565b91506109cc8261098b565b602082019050919050565b600060208201905081810360008301526109f0816109b4565b9050919050565b7f557365726e616d65207265717569726564000000000000000000000000000000600082015250565b6000610a2d60118361088d565b9150610a38826109f7565b602082019050919050565b60006020820190508181036000830152610a5c81610a20565b9050919050565b7f456d61696c207265717569726564000000000000000000000000000000000000600082015250565b6000610a99600e8361088d565b9150610aa482610a63565b602082019050919050565b60006020820190508181036000830152610ac881610a8c565b9050919050565b7f4e487b7100000000000000000000000000000000000000000000000000000000600052602260045260246000fd5b60006002820490506001821680610b1657607f821691505b602082108103610b2957610b28610acf565b5b50919050565b60008190508160005260206000209050919050565b60006020601f8301049050919050565b600082821b905092915050565b600060088302610b917fffffffffffffffffffffffffffffffffffffffffffffffffffffffffffffffff82610b54565b610b9b8683610b54565b95508019841693508086168417925050509392505050565b6000819050919050565b6000819050919050565b6000610be2610bdd610bd884610bb3565b610bbd565b610bb3565b9050919050565b6000819050919050565b610bfc83610bc7565b610c10610c0882610be9565b848454610b61565b825550505050565b600090565b610c25610c18565b610c30818484610bf3565b505050565b5b81811015610c5457610c49600082610c1d565b600181019050610c36565b5050565b601f821115610c9957610c6a81610b2f565b610c7384610b44565b81016020851015610c82578190505b610c96610c8e85610b44565b830182610c35565b50505b505050565b600082821c905092915050565b6000610cbc60001984600802610c9e565b1980831691505092915050565b6000610cd58383610cab565b9150826002028217905092915050565b610cee82610882565b67ffffffffffffffff811115610d0757610d06610654565b5b610d118254610afe565b610d1c828285610c58565b600060209050601f831160018114610d4f5760008415610d3d578287015190505b610d478582610cc9565b865550610daf565b601f198416610d5d86610b2f565b60005b82811015610d8557848901518255600182019150602085019450602081019050610d60565b86831015610da25784890151610d9e601f891682610cab565b8355505b6001600288020188555050505b505050505050565b60006020820190508181036000830152610dd181846108c8565b905092915050565b7f55736572206e6f7420666f756e64000000000000000000000000000000000000600082015250565b6000610e0f600e8361088d565b9150610e1a82610dd9565b602082019050919050565b60006020820190508181036000830152610e3e81610e02565b905091905056fea2646970667358221220397dd57fbc47baf446a5fd4854202ed1cea3705633626a0fdefbda7220d7b69664736f6c63430008140033",
  "linkReferences": {},
  "deployedLinkReferences": {}
}